:020000040800F2
:10000000802D0024015A0008D9E40008ED590008A9
:10001000ED590008ED590008ED59000800000000F6
:10002000000000000000000000000000DD5A000891
:10003000ED59000800000000795A00080583000807
:10004000A15C0008A15C0008A15C0008A15C00089C
:10005000A15C0008A15C0008A15C0008A15C00088C
:10006000A15C0008A15C0008A15C0008A15C00087C
:10007000A15C0008A15C0008A15C0008A15C00086C
:1002980081F0004102E000BF83F0004330B54FEA2F
:1002A80041044FEA430594EA050F08BF90EA020F9C
:1002B8001FBF54EA000C55EA020C7FEA645C7FEA2F
:1002C800655C00F0E2804FEA5454D4EB5555B8BF52
:1002D8006D420CDD2C4480EA020281EA030382EAC3
:1002E800000083EA010180EA020281EA0303362D55
:1002F80088BF30BD11F0004F4FEA01314FF4801C28
:100308004CEA113102D0404261EB410113F0004F39
:100318004FEA03334CEA133302D0524263EB4303F0
:1003280094EA050F00F0A780A4F10104D5F1200E8E
:100338000DDB02FA0EFC22FA05F2801841F10001E9
:1003480003FA0EF2801843FA05F359410EE0A5F1BD
:1003580020050EF1200E012A03FA0EFC28BF4CF0EE
:10036800020C43FA05F3C01851EBE37101F00045A4
:1003780007D54FF0000EDCF1000C7EEB00006EEBB1
:100388000101B1F5801F1BD3B1F5001F0CD349083B
:100398005FEA30004FEA3C0C04F101044FEA445292
:1003A80012F5800F80F09A80BCF1004F08BF5FEA19
:1003B800500C50F1000041EB045141EA050130BDF9
:1003C8005FEA4C0C404141EB0101013C28BFB1F50B
:1003D800801FE9D291F0000F04BF01460020B1FA56
:1003E80081F308BF2033A3F10B03B3F120020CDA29
:1003F8000C3208DD02F1140CC2F10C0201FA0CF007
:1004080021FA02F10CE002F11402D8BFC2F1200C6B
:1004180001FA02F120FA0CFCDCBF41EA0C01904021
:10042800E41AA2BF01EB0451294330BD6FEA04046A
:100438001F3C1CDA0C340EDC04F11404C4F1200255
:1004480020FA04F001FA02F340EA030021FA04F367
:1004580045EA030130BDC4F10C04C4F1200220FABE
:1004680002F001FA04F340EA0300294630BD21FAFC
:1004780004F0294630BD94F0000F83F4801306BFC2
:1004880081F480110134013D4EE77FEA645C18BFB6
:100498007FEA655C29D094EA050F08BF90EA020F4D
:1004A80005D054EA000C04BF1946104630BD91EA45
:1004B800030F1EBF0021002030BD5FEA545C05D148
:1004C8004000494128BF41F0004130BD14F5800487
:1004D8003CBF01F5801130BD01F0004545F0FE41FB
:1004E80041F470014FF0000030BD7FEA645C1ABF30
:1004F800194610467FEA655C1CBF0B46024650EA67
:10050800013406BF52EA033591EA030F41F4002192
:1005180030BD00BF90F0000F04BF0021704730B518
:100528004FF4806404F132044FF000054FF00001ED
:1005380050E700BF90F0000F04BF0021704730B5AE
:100548004FF4806404F1320410F0004548BF404283
:100558004FF000013EE700BF42004FEAE2014FEAD8
:1005680031014FEA02701FBF12F07F4393F07F4FB3
:1005780081F06051704732F07F4208BF704793F0B6
:100588007F4F04BF41F40021704730B54FF46074C9
:1005980001F0004521F000411CE700BF50EA0102CC
:1005A80008BF704730B54FF000050AE050EA010275
:1005B80008BF704730B511F0004502D5404261EBE5
:1005C80041014FF4806404F132045FEA915C3FF426
:1005D800D8AE4FF003025FEADC0C18BF03325FEAC3
:1005E800DC0C18BF033202EBDC02C2F1200300FA74
:1005F80003FC20FA02F001FA03FE40EA0E0021FA99
:1006080002F11444BDE600BF70B54FF0FF0C4CF486
:10061800E06C1CEA11541DBF1CEA135594EA0C0F38
:1006280095EA0C0F00F0DEF82C4481EA030621EA73
:100638004C5123EA4C5350EA013518BF52EA0335AE
:1006480041F4801143F4801338D0A0FB02CE4FF060
:100658000005E1FB02E506F00042E0FB03E54FF090
:100668000006E1FB03569CF0000F18BF4EF0010E88
:10067800A4F1FF04B6F5007F64F5407404D25FEA84
:100688004E0E6D4146EB060642EAC62141EA555137
:100698004FEAC52040EA5E504FEACE2EB4F1FD0C79
:1006A80088BFBCF5E06F1ED8BEF1004F08BF5FEAF7
:1006B800500E50F1000041EB045170BD06F00046A9
:1006C80046EA010140EA020081EA0301B4EB5C0456
:1006D800C2BFD4EB0C0541EA045170BD41F480114E
:1006E8004FF0000E013C00F3AB8014F1360FDEBF73
:1006F800002001F0004170BDC4F10004203C35DA4F
:100708000C341BDC04F11404C4F1200500FA05F3D1
:1007180020FA04F001FA05F240EA020001F0004272
:1007280021F0004110EBD37021FA04F642EB0601E8
:100738005EEA430E08BF20EAD37070BDC4F10C0412
:10074800C4F1200500FA04F320FA05F001FA04F2D6
:1007580040EA020001F0004110EBD37041F10001C2
:100768005EEA430E08BF20EAD37070BDC4F12005CD
:1007780000FA05F24EEA020E20FA04F301FA05F235
:1007880043EA020321FA04F001F0004121FA04F2DD
:1007980020EA020000EBD3705EEA430E08BF20EAAD
:1007A800D37070BD94F0000F0FD101F000464000E7
:1007B80041EB010111F4801F08BF013CF7D041EA69
:1007C800060195F0000F18BF704703F0004652006D
:1007D80043EB030313F4801F08BF013DF7D043EA3E
:1007E8000603704794EA0C0F0CEA135518BF95EAF4
:1007F8000C0F0CD050EA410618BF52EA4306D1D17B
:1008080081EA030101F000414FF0000070BD50EA99
:10081800410606BF1046194652EA430619D094EA23
:100828000C0F02D150EA013613D195EA0C0F05D10D
:1008380052EA03361CBF104619460AD181EA030161
:1008480001F0004141F0FE4141F470014FF0000019
:1008580070BD41F0FE4141F4780170BD70B54FF0B4
:10086800FF0C4CF4E06C1CEA11541DBF1CEA135534
:1008780094EA0C0F95EA0C0F00F0A7F8A4EB050416
:1008880081EA030E52EA03354FEA013100F088800D
:100898004FEA03334FF0805545EA131343EA1263D6
:1008A8004FEA022245EA111545EA10654FEA00268B
:1008B8000EF000419D4208BF964244F1FD0404F544
:1008C800407402D25B084FEA3202B61A65EB0305A0
:1008D8005B084FEA32024FF480104FF4002CB6EB5D
:1008E800020E75EB030E22BFB61A754640EA0C00DD
:1008F8005B084FEA3202B6EB020E75EB030E22BF1D
:10090800B61A754640EA5C005B084FEA3202B6EB5D
:10091800020E75EB030E22BFB61A754640EA9C001C
:100928005B084FEA3202B6EB020E75EB030E22BFEC
:10093800B61A754640EADC0055EA060E18D04FEAAA
:10094800051545EA16754FEA06164FEAC30343EA4A
:1009580052734FEAC2025FEA1C1CC0D111F4801F17
:100968000BD141EA00014FF000004FF0004CB6E710
:1009780011F4801F04BF01430020B4F1FD0C88BFAF
:10098800BCF5E06F3FF6AFAEB5EB030C04BFB6EBBA
:10099800020C5FEA500C50F1000041EB045170BDAD
:1009A8000EF0004E4EEA113114EB5C04C2BFD4EBDA
:1009B8000C0541EA045170BD41F480114FF0000E5E
:1009C800013C90E645EA060E8DE60CEA135594EADA
:1009D8000C0F08BF95EA0C0F3FF43BAF94EA0C0FDD
:1009E8000AD150EA01347FF434AF95EA0C0F7FF452
:1009F80025AF104619462CE795EA0C0F06D152EAA6
:100A080003353FF4FDAE1046194622E750EA410689
:100A180018BF52EA43067FF4C5AE50EA41047FF49A
:100A28000DAF52EA43057FF4EBAE12E77BB972B91A
:100A38000029BEBF00204FF0004106E008BF002893
:100A48001CBF6FF000414FF0FF3000F057B8ADF118
:100A5800080C6DE904CE002909DB002B1ADB00F035
:100A680069F8DDF804E0DDE9022304B0704740428C
:100A780061EB4101002B1BDB00F05CF8DDF804E0C2
:100A8800DDE9022304B0404261EB4101524263EBCD
:100A980043037047524263EB430300F04BF8DDF821
:100AA80004E0DDE9022304B0404261EB41017047F4
:100AB800524263EB430300F03DF8DDF804E0DDE962
:100AC800022304B0524263EB4303704753B94AB957
:100AD800002908BF00281CBF4FF0FF314FF0FF303E
:100AE80000F00CB8ADF1080C6DE904CE00F022F866
:100AF800DDF804E0DDE9022304B07047704700BF69
:100B080010F8012B11F8013B012A28BF9A42F7D0AF
:100B1800D01A7047034611F8012B03F8012B002A5D
:100B2800F9D17047034613F8012B002AFBD1181A94
:100B3800013870472DE9F04786468C460846089EDE
:100B4800154674461946002B40F0C2808542B2FA19
:100B580082F245D94AB1C2F1200300FA02FC2EFA0A
:100B680003F3954043EA0C0C94404FEA154EA8B2A3
:100B7800BCFBFEF8230C0EFB18CC08FB00F943EA7B
:100B88000C43994528D9EB1808F1FF3704D2994549
:100B980002D9A8F102072B44A3EB0903A4B2B3FBC3
:100BA800FEFC0EFB1C330CFB00F044EA0344A0429D
:100BB80014D92C190CF1FF3304D2A04202D9ACF19C
:100BC80002032C44241A43EA07401EB1D4400023F0
:100BD80034607360BDE8F0874746DDE76346F1E7B8
:100BE80092BB431B01214FEA154EAFB2B3FBFEFC8B
:100BF800200C0EFB1C330CFB07F840EA0343984516
:100C080062D9EB180CF1FF3004D2984502D9ACF147
:100C180002002B44A3EB0803A4B2B3FBFEFC0EFBBB
:100C28001C330CFB07F744EA0344A7424ED92C199E
:100C38000CF1FF3304D2A74202D9ACF102032C44D1
:100C4800E41B43EA0040C0E7C2F1200320FA03F1A5
:100C5800954090402EFA03F303434FEA154EAFB286
:100C6800B1FBFEFC0EFB1C10190C0CFB07F841EA4B
:100C78000041884504FA02F422D969180CF1FF30C2
:100C880004D2884502D9ACF102002944A1EB08013D
:100C98009BB2B1FBFEFC0EFB1C110CFB07F743EAF1
:100CA80001439F420ED9EB180CF1FF3104D29F4249
:100CB80002D9ACF102012B44DB1B41EA004192E767
:100CC8006046E3E76146F7E76046A3E76346B7E7B0
:100CD800834206D916B9002108467BE7C6E900E039
:100CE800F9E7B3FA83F78FB9834201D3724508D87D
:100CF800BEEB020460EB030301209C461EB90021F1
:100D080068E73846FAE7C6E9004CF8E7C7F1200C6F
:100D1800BB4022FA0CF41C432EFA0CF120FA0CF317
:100D2800B84001434FEA14490EFA07F5B3FBF9F846
:100D38001FFA84FE09FB18300B0C08FB0EFA43EA75
:100D480000439A4502FA07F240D9E31808F1FF3048
:100D580004D29A4502D9A8F102002344A3EB0A035E
:100D680089B2B3FBF9F809FB183308FB0EFE41EA18
:100D780003418E452CD9611808F1FF3304D28E4502
:100D880002D9A8F10203214443EA0040A0FB0298DB
:100D9800A1EB0E014145CE46434602D306D14D454F
:100DA80004D2B9EB020E68EB04030138002EA6D07A
:100DB800B5EB0E0261EB030101FA0CFC22FA07F312
:100DC8004CEA0303F940C6E9003198E74046C5E715
:100DD8004346D9E7000000002DE9D04386B02A48F1
:100DE8008368DB6840219847044670B926488368C1
:100DF8001B6904AA0D219847044638B9224883681C
:100E08001B6902AA1021984704461CB121461F48B5
:100E18000AF0CAFF0498FFF78DFB06460F460598AF
:100E2800FFF788FB16A3D3E90023FFF717FD024657
:100E38000B4630463946FFF731FA06460F46029808
:100E4800FFF778FB804689460398FFF773FB0CA3EE
:100E5800D3E90023FFF702FD02460B464046494608
:100E6800FFF71CFACDE9000132463B4608480AF074
:100E78009BFF204606B0BDE8D08300BFAFF30080DB
:100E88000000000080842E41FC0D0108981801081C
:100E9800AC180108000000002DE9F04F8DB0099052
:100EA8000C4615460FF007F90022431880F083809E
:100EB80013444B4FA7FB032C2CF0030202EB9C02BC
:100EC8009B1AC01A61F100024FF0CC3100FB01F10E
:100ED80007FB0211A0FB07031944420842EAC1724A
:100EE8004FEA51099246012C67D06C6821463D486B
:100EF800FFF706FE28B121463B48FFF701FE002810
:100F080062D135A3D3E9002350464946FFF78EFD49
:100F180080460A9130A3D3E9002350464946FFF79B
:100F280085FD15461C46314A002328462146FFF711
:100F38007DFD06460F462D4A002328462146FFF729
:100F480075FD15461C464EF66022002328462146AC
:100F5800FFF76CFD81460B914EF660220023284670
:100F68002146FFF763FD15461C464FF47A720023AD
:100F780028462146FFF75AFD83468A464FF47A727F
:100F8800002328462146FFF751FDCDE90623CDF879
:100F980010B0CDF814A0CDF808900B9A03920096E3
:100FA800019742460A9B124909980CF0F6F900206D
:100FB8000DB0BDE8F08F01227AE74B460D4909983C
:100FC8000CF0EBF90020F3E722460B4909980CF0E6
:100FD80002FA6FF00400EBE7005C26050000000051
:100FE800CDCCCCCC801C0108841C010880EE3600D6
:100FF800A81C01086C1C0108901C010808B50948C8
:101008000EF099FD08B1002008BD064B1968064886
:101018000AF0CAFE42F21070002108F0A5FC6FF039
:101028000400F1E7FC0D0108CC1801082DE9F04F88
:1010380091B005920293134602F004020092C3F3A2
:10104800C20210F00303019340F0328280468A46C0
:101058000132041D002858D0B8F1000F05D0A4EBC8
:1010680008030433534500F22682029B5D1E019B50
:1010780004930693039300264FF0FF3B0427B946D9
:10108800B8F1000F01D0029B2360531E0793002A7A
:1010980040F367810122059B03F00203002B14BF74
:1010A8000123002302F0010118BF002141BBA4EB7A
:1010B80008008108B0F5007F34BF002303F0010366
:1010C800002B40F0FE8103980F2800F2FD81B8F153
:1010D800000F00F05B81CBB200F14001694401F8D8
:1010E800103C01F820BC002A00F04C8163F07F031B
:1010F80001F8103C049B01330493039B01330393D1
:1011080004340022CC4640463DE001F0070A54442E
:10111800CAF1080AA0E7002634E0002632E00026DB
:1011280030E00827BC462DE025292BD10BF1010B17
:1011380001260427BC4625E04729EED82A2914D3DE
:101148002A39C9B24FF0010E0EFA01F14FF6DA7ED4
:1011580011EA0E0F16D111F0625F40F0C18011F054
:10116800010F40F08D8000260CE0252903D10BF1FA
:10117800FF3B002606E001D9002603E0202901D024
:101188002329CCD11D466B1C6978002900F01781F2
:10119800002EC9D07A29BED84C29CDD34C392E2956
:1011A80062D80FF2080E5EF821F000BF8D1100081A
:1011B80071120008711200087112000871120008FB
:1011C80071120008711200087112000871120008EB
:1011D80071120008711200087112000881120008CB
:1011E80071120008711200087112000871120008CB
:1011F80071120008711200087112000871120008BB
:10120800E912000871120008811200088112000812
:10121800E9120008E9120008E91200088D11000817
:10122800811200082B110008711200088D110008A6
:1012380071120008451300088112000845130008C0
:1012480071120008711200084D1300087B12000883
:10125800811200087112000871120008811200083A
:10126800711200087512000800268BE70427BC4697
:1012780088E70427BC4685E729786C2924D000260E
:101288003C44013CB4FBF7F407FB04F420B1211AF9
:101298006144514500F21281002A58D1BCF1040F73
:1012A80000F08580BCF1080F40F011811A990731D0
:1012B80021F0070101F108051A95D1E9008908B163
:1012C800C4E9008908345DE713F8021C6C2903D0CF
:1012D80000260427BC46D3E700260827BC46CFE7EC
:1012E80029784C291AD01A99073121F0070101F100
:1012F80008061A96D1E90067073424F0070440B1BC
:10130800211A0831514513D829784C2913D0C4E93A
:101318000067083400260827BC4633E71A990731C6
:1013280021F0070101F108061A96D1E90067E3E701
:101338006FF01B00B9E0C4E90067EAE7002604275C
:10134800BC469DE7324600260427BC4698E7E1469E
:1013580080461A9A111D1A9112680292079A1D4620
:101368008EE6614B029A9A4204D3604B9A4205D3A7
:10137800002300E000231BB900228CE60123FAE7D2
:10138800012288E6069B01330693B6E612B10AF1FC
:10139800010AB2E6009B13B10AF1020AADE602980F
:1013A800FFF7C0FB0AEB000303F1020AA5E61A994E
:1013B8000D1D1A95096800B121600434E2E68046E3
:1013C800231AB3F5806F80F0858090B10022026007
:1013D8009B080370009B83B1069BC370049B88F82D
:1013E80002301BBB019DDDF80C90DDF810B0029FA8
:1013F8003DE05344A3F1080057E0069B4370EDE736
:1014080001339842EED903F140026A4412F8101CE5
:1014180012F9102C002AF3DA01F07F01A4EB08027C
:101428000132524559D804F8011BE9E7019B03989A
:10143800E7E7009B43B305F140036B4413F8203CF6
:1014480004F8013B019EA4EB0803334401335345E0
:1014580046D805F140036B4413F8103C04F8013BEF
:101468003246394620460FF078F834440135A9450C
:1014780019D9BBF1000FDCD005F140036B4413F917
:10148800103C002BD5DAF1E705F140036B4413F863
:10149800103C58F82370002248F823203846FFF7FC
:1014A80041FB461CCFE7A4EB080011B0BDE8F08F64
:1014B8006FF00D00F9E76FF01B00F6E76FF01B0007
:1014C800F3E76FF01500F0E76FF01500EDE76FF048
:1014D8001500EAE76FF01500E7E76FF01B00E4E797
:1014E8006FF01B00E1E700BF180A010888490108EE
:1014F8002DE9F04F97B000AF8346BA617B61D7F80A
:101508008030C3F3C0033B62396111B90AF0C4FBF0
:1015180038619BF80260B14636B1D7F8803013F0D5
:10152800010F0ED1002300E0002319469BF8032089
:101538007A6242B1D7F8802012F0020F22D100223D
:1015480002E00123F1E7002213431DD09BF800506D
:10155800AB00BB60DBF80430FB600BEB8505BB69B7
:10156800F3B1002940F01881B9F1000F00F0238190
:10157800D7F8803013F0040F40F021810020F86183
:1015880006460DE10122DFE7BB691BB17A693969BB
:10159800584698473C6920465C37BD46BDE8F08F01
:1015A8003C6951BB4D444FF00008D7F8803003F038
:1015B80005033B614FF0000AC7F81480A046C7F83E
:1015C8001CB0D7F804B0D1E00444013501364E45CB
:1015D800EBD22A7800235BF822201946B8690AF072
:1015E80070FBD7F88830BAF1000F18BF9845EBD2D6
:1015F8002AF8180008F10108E6E70026B046D7F8EF
:1016080084A0E4E700253B6A93B9002D00F091809F
:10161800D7F8803013F0010F40F090803B69002B21
:1016280040F085800223A8EB03089CE00125EAE747
:101638004946F8680AF08BFB0028E6D0A54B1B68E2
:1016480013F0060F5AD06C46002387F82C3002237B
:1016580087F82D308AB0694611F1100251D0122551
:10166800131E18BF01232846042DD4BF4FF0000CC9
:1016780003F0010CBCF1000F01D0974D4D6100251E
:1016880087F82850022587F829500828D4BF002554
:1016980003F001050DB1FD688D610C28D4BF00234E
:1016A80003F001030BB1C1F81C906ABB11283BDDA4
:1016B800122362B1042087F82C00002087F82D003F
:1016C80087F82E00012087F82F00F86A08616FF369
:1016D800000B6FF3410B6FF3820B6FF3C50B022105
:1016E80061F3881BC3F30A0363F3532B6FF31F5B88
:1016F80000235946774800F075FDA546A8F1020871
:1017080031E06FF00045ABE701F120030025012D22
:10171800CCD805F1300C07F1280EF4441CF830CC75
:1017280003F801CB0135F2E76FF01B03C1E7012392
:1017380079E7D7F8803013F0020F14D0002322463F
:101748001946B8690AF0BDFAD7F884207B69D7F83A
:101758008810002A18BF8B4203D222F813000133E5
:101768007B61013880440AF1010A35467B6A9A4553
:1017780010D22E4616F8029B6B78FA6952F823406D
:10178800564B9C42FFF43EAF554B9C42FFF44EAF84
:10179800002538E74446FEE607F144000023FB61D4
:1017A80018B14A4629460EF0D8FE4D444FF00008BD
:1017B800C7F804901EE00020F8610646F0E7FE61D5
:1017C80007F134000026EBE700253B6A33BB002D08
:1017D8003BD0D7F8803013F0010F26D0731C06F1E8
:1017E800300207F12801561806F8149CDEB208F1F9
:1017F800010825467B6A98454AD22C4614F802AB64
:1018080095F801905BF82930344A9342DCD3344A86
:10181800934201D30025D8E70125D6E75146F86859
:101828000AF095FA0028D2D0E1E7D7F8803013F013
:10183800040FDCD0FA69531C303207F128010A443E
:1018480002F8249CDBB2FB61D1E7D7F8803013F0B3
:10185800020F09D0731C06F1300207F1280156184F
:1018680006F8149CDEB2C2E7F869431C00F13001A7
:1018780007F128028A1802F824AC02460232D2B2D2
:10188800FA6107F1580252FA83F303F8249CAEE791
:10189800D7F804909BF8003087F854309BF8013053
:1018A800334487F85530D7F8803013F0020F0ED143
:1018B800FB69C3F3470387F85730D7F8803013F034
:1018C800010F0FD113F0040F46D100230BE00023C2
:1018D800F1E700BF90010024E4180108180A010884
:1018E80088490108002387F85630DBF80000386380
:1018F800786DCBF80000D7F814804246B96858468E
:10190800D7F818A0D047041EFFF645AE386BCBF8C1
:101918000000C7F814804246F96907F13400D0473F
:10192800B0F100084EDBA044B96849447B6A01EB7A
:101938004301D7F814904A463B69591A2846D047BC
:10194800041EFFF628AEA04400257E62C7F820B02A
:101958005646D7F884B015E0FB69C4E74FF0000A93
:101968004A46012107F12C00B04700282CDB8044AF
:1019780053462246494630460AF0A3F9002825DB9B
:10198800804401357B6A9D4215D205F1300307F189
:101998002802134413F8143C87F82C303A6A52F89A
:1019A8002340D7F88830BBF1000F18BF9D42D5D22D
:1019B8003BF815A0D4E77A6900210846BB69984727
:1019C8004446E8E54446E6E50446E4E50446E2E53F
:1019D800014B1860704700BF0000002480B5054621
:1019E8000E461746984608F025F803460FF006F805
:1019F8000446DFF8189049F8003042463946304628
:101A0800A84754F8090004F019F800BF08000000BE
:101A1800054B5A6842F002025A605A6842F00102C5
:101A28005A600020704700BF0010005C0C4B0D4A44
:101A38001A600D4AD36823F0070343F00203D3600A
:101A48000A4B1A6841F20303B3EB124F00D07047F8
:101A5800074AD2F8083143F00103C2F80831F6E723
:101A6800040100240090D003004802580010005CD4
:101A78000080005170B506460D46084C04E02A4621
:101A88003146204698471034054B9C4204D22368BF
:101A98009B69002BF3D1F6E770BD00BF3014010835
:101AA8004014010808B50EF006FB0022431819D2AD
:101AB80013440D4AA2FB03CE2EF0030C0CEB9E0C34
:101AC800A3EB0C03C01A61F100014FF0CC3300FB0B
:101AD80003F302FB0133A0FB02021344400840EA6F
:101AE800C37008BD0122E3E7CDCCCCCC2DE9F04191
:101AF800074605460AE007EA0807144B03EB0613F6
:101B08005B680422196820460AF002FED5B195FAEE
:101B1800A5F6B6FA86F60D4C04EB06140123B3407D
:101B28006FEA030825EA0305237B002BEED0330177
:101B3800064AD3581B69002BDDD020469847002859
:101B4800E4D1D8E73846BDE8F08100BF3014010879
:101B58002DE9F04180460F461F4BBFF35B8F53E8DA
:101B6800005F6A1C43E800210029F8D1BFF35B8FAE
:101B78006DBB1A4C002607E06368042219682046EA
:101B88000AF0C6FD01361034154B9C4211D2237B56
:101B9800002BF7D020460AF0D0FC23681B69002BE5
:101BA800EAD0204698470028E6D00123B3401D43D9
:101BB800E8E7B8F1000F0BD055B12846FFF796FFBC
:101BC8000546002FF8D00A200AF0C3FCF4E70025E8
:101BD8002846BDE8F08100BFA40D00243014010898
:101BE8004014010808B5064B186018B1054B1B686E
:101BF800092B00DC08BD044807F028F9FAE700BF04
:101C0800980D0024A00D0024D401002408B5024832
:101C180007F01CF908BD00BFD401002438B50546FB
:101C28000B4C00E010340B4B9C420FD263685B797D
:101C3800002BF7D0294620460AF09BFC0028F1D05B
:101C480023681B68294620469847EBE738BD00BF44
:101C5800301401084014010830B589B000220F493A
:101C68000F480EF037FA0F4D00220023CDE9062366
:101C7800002404940E2303930294019400940A4BC5
:101C88004FF44072094928460EF017F808492846CB
:101C980007F05AF9204609B030BD00BF151C0008EE
:101CA800B0060024F0010024392000084014002464
:101CB8002C1A010848B108B5054A1060054B19608F
:101CC800084600F09FFD002008BD6FF01500704722
:101CD80004000024940D002408B5054B1B781BB1A3
:101CE800034B01221A7008BD024807F0AFF8F7E766
:101CF800FC130024D401002408B5104BBFF35B8FFC
:101D080053E8001F013143E80012002AF8D1BFF35D
:101D18005B8F30B90A480EF0E9F90A4807F096F8DF
:101D280008BD094BBFF35B8F53E8001F013943E837
:101D38000012002AF8D1BFF35B8FEBE79C0D00245B
:101D4800B0060024D4010024A00D0024064B002076
:101D58000146BFF35B8F53E8000F43E80012002AE7
:101D6800F9D1BFF35B8F70479C0D002438B5FFF79E
:101D7800EDFF0546094C00E01034094B9C420BD29C
:101D880063685B79002BF7D023685B68002BF3D07E
:101D9800294620469847EFE738BD00BF30140108B0
:101DA80040140108034B18680028D4BF0020012004
:101DB800704700BF9C0D002410B5044C0449204610
:101DC8000AF059F9034B1C6010BD00BF48010024FC
:101DD800341A0108900D002408B500230D4A137029
:101DE8000D4A13600D4A13604FF47A710C48FFF7DF
:101DF80061FFFFF7E1FF00F085F90A4A06E0094BA9
:101E0800D31A1B11013351680B711032064B9A42D9
:101E1800F5D308BDFD1300249C0D0024A00D00245B
:101E2800AD1A0008301401084014010808B501462D
:101E380001480AF0C0FB08BD4801002408B5024863
:101E48000AF0FCF908BD00BF4801002408B50146A6
:101E5800024B18680AF0B5FB08BD00BF900D0024BE
:101E680008B502480AF0B1FB08BD00BF48010024CC
:101E780010B582B000220023CDE900232C4B18783E
:101E880008B902B010BD68460AF0B7FB044680B135
:101E9800FFF7C4FE2046FFF7D9FF264BBFF35B8F41
:101EA80053E8001F013943E80012002AF8D1BFF3B4
:101EB8005B8FFFF777FF58B91F4A1368516813F50E
:101EC8007A7341F1000113605160FFF7C9FFD8E749
:101ED8000EF0F1F80022431827D21344174AA2FB48
:101EE800034C2CF0030404EB9C041B1BC01A61F187
:101EF80000014FF0CC3300FB03F302FB0133A0FBDE
:101F080002021344400840EAC3705B080A490A68A1
:101F18004968801A63EB010340F2E932904273F199
:101F28000003C9D3FFF722FFC6E70122D5E700BFA8
:101F3800FC130024A00D0024A8060024CDCCCCCC92
:101F48000F4B1B7803B1704710B500210120FFF734
:101F5800FFFD0C4C00E010340B4B9C4208D2636828
:101F68005B79002BF7D023689B6820469847F2E7F7
:101F7800FFF77EFF0028FBD1014B01221A7010BD2C
:101F8800FD130024301401084014010810B582B074
:101F98001A4BBFF35B8F53E8002F511C43E8001026
:101FA8000028F8D1BFF35B8F154B1B7863B9154B2D
:101FB8001B68B3B1BAB1092A13D113480EF096F8C9
:101FC800124806F043FF0CE0EFF31184102383F36B
:101FD8001288BFF36F8FFFF74BFF84F31188BFF3AD
:101FE8006F8F02B010BD00220023CDE9002342F21A
:101FF80010720023044808F0BFF8F2E7A00D00248F
:10200800FD130024980D0024B0060024D4010024F8
:1020180010B50446044B1B689847A0602146034846
:102028000AF0EFFA10BD00BF0400002448010024A4
:102038002DE9F04100210846FFF78AFD804650B19E
:102048004FF4FA7600270EF0D9FC154B1858FFF715
:10205800C9FD002515E04FF0FF364FF0FF37F2E7D6
:102068004046FFF743FD804670B94FF0FF364FF00A
:10207800FF3709E02C4632463B460A4806F02EFF59
:102088002546B8F1000FEBD1FFF7F2FE0446002811
:10209800F6D1002DEED000210846FFF7EBFCEAE769
:1020A80008000000D4010024014800EB81007047BB
:1020B8008C0100240248034BC01AC008704700BFB7
:1020C80030140108A013010810B50C46FFF7F2FF01
:1020D800A04203D9024B53F8340010BD0020FCE79E
:1020E800A013010810B50C46FFF7E4FFA04204D97D
:1020F800034B03EBC403187910BD0020FCE700BFB5
:10210800A013010810B500240EE021460020FFF7B7
:10211800E9FF094A52F8243023F0070300F00700CA
:10212800184342F824000134044B054A9B1AB4EBC7
:10213800D30FEAD310BD00BF8C010024301401086E
:10214800A01301082DE9F8430D46164698460028C5
:1021580012DBC4B2002320460AF08BFA074610B1FE
:10216800404500D947463B463246E9B220460AF088
:1021780062FA3846BDE8F8830C4B0D4AA3EB020916
:102188004FEA1919002427460DE0094B03EB041305
:1021980058684346324629460079FFF7D3FF8742FD
:1021A80038BF074601344C45EFD3E2E74014010835
:1021B8003014010800B589B00592069300230793EF
:1021C80062B1074A0C9B02930B9B01930A9B0093F5
:1021D80005ABFFF78DF909B05DF804FB0022F1E7C4
:1021E80069C700082DE9F04F8BB004AF05461E46BD
:1021F8008846C1F34A24002C00F09E8091460022B4
:10220800FA603A617A6104230293FB1801930A2366
:10221800009307F10C0321464846FFF769F9B0F52A
:10222800006F6DD34E4B1B6813F0060F00F09380C0
:10223800D9F804C06C4600233B7302237B738AB031
:1022480004AD15F1100230D01221131E18BF01235E
:1022580008460429D4BF002603F001060EB14149FF
:10226800696100213970022179700828D4BF0021E2
:1022780003F0010109B1C5F818C00C28D4BF002328
:1022880003F0010313B140F2FF73EB6182B105F172
:102298002003002101290BD801F118063E4416F845
:1022A800186C03F8016B0131F4E76FF00041CCE7DB
:1022B800112822DD122342B10421397300217973D8
:1022C800B9730121F973F868286100216FF30001DF
:1022D8006FF341016FF382016FF3C501022060F3D0
:1022E8008811C3F30A0363F353210023C1F31301D5
:1022F8001B480AF0ABFAA5462DE06FF01B03DAE79E
:1023080060F35328C0F30A0A0AEB1850173020F07C
:1023180007008008FFF78AFD8346B0B104230293C3
:10232800FB1801930A230093534600F1100221463B
:102338004846FFF73FFF08E004EB1154173424F038
:102348000704A008FFF772FD834633464246294634
:1023580058460AF01EFA1C37BD46BDE8F08F00BF8C
:10236800B0010024581A01082DE9F04F85B08046C5
:102378000D4617461E46DDF838B0DDF84090B9F135
:10238800000F41D0119B039300934B460F9A1021E5
:102398000020FEF74BFEB0F5006F28D282460BEB0B
:1023A8000003173323F0070300246FF300046FF3CF
:1023B80041046FF3820468F3C50467F3881460F37B
:1023C80053246BF31F549808FFF730FD074600B1FC
:1023D8001030002818BFB9F1000F17D13346224634
:1023E800294638460AF0D5F905B0BDE8F08F0B4B01
:1023F8001B6813F0060FF7D040F2FF73084A02215A
:1024080006480AF018FAEFE70020C7E7119B009387
:102418004B460F9A5146FEF709FEDFE7B00100244C
:10242800981A0108406820B1034BC01A40F38F0086
:1024380070474FF0FF3070478C0100240EB400B590
:1024480082B0014603AB53F8042B0193034803F011
:1024580023FE02B05DF804EB03B070478BC8000898
:1024680010B584B011F0440F05D01A4B1B6833B96E
:10247800002004B010BD1849FFF7E0FFF9E717493D
:102488000968B2FBF1F2B2FBF3FC03FB1C224FF428
:102498007A7E0EFB02F2B2FBF3F403FB14210EFB6F
:1024A80001F1B1FBF3F10E4AA2FB0C32D20A4FF450
:1024B800616303FB12CC0B4BA3FB0CE35B0902919A
:1024C8000194C3EB0311ACEB810100910649FFF7BE
:1024D800B5FFCEE7AC0D0024D01A0108A80D0024E2
:1024E800C5B3A29189888888DC1A010861B108B54A
:1024F8002AB1064A52F8232012B9054A00E0044AD4
:102508000449FFF79BFF08BD704700BF7C1B01080B
:10251800F81A0108001B01082DE9F041804617460A
:10252800069D079EC1B900242DB12A461049404690
:10253800FFF784FF044466B1099B042B14BF0027EE
:1025480007F001078FB10B4932464046FFF776FF87
:1025580004442046BDE8F081074B099A53F822202D
:102568000649FFF76BFF0446DEE70549ECE700BFC5
:10257800181B0108041B0108901B0108101B010807
:10258800081B01082DE9F04F87B005460C46049258
:1025980005939DF84C7001F0020B01F0010AC1F39C
:1025A800C00801F480790AF032F818B302461649D7
:1025B8002846FFF743FF0646BBF1000F1CD13A46F9
:1025C800514628460AF088F9B9F1000F01D00023D6
:1025D80011930397129B0293119B0193109B0093F5
:1025E8000023049A41462846FFF796FF304407B077
:1025F800BDE8F08F0026DFE7059A21462846FFF759
:102608002FFF0644DBE700BF1C1B010811F0100F69
:102618000BD108B511F0200F03D00449FFF70EFFC6
:1026280008BD0349FFF70AFFFAE77047CC260108FF
:10263800201B01082DE9F04105460F46164698462D
:102648000699FFF7E3FF0024444505DA24492846A4
:10265800FFF7F4FE0134F7E7002409E02049284693
:10266800FFF7ECFE0BE01F492846FFF7E7FE0134B1
:102678000F2C0CDC002C02DD14F0070FEED0B44256
:10268800F1D23A5D18492846FFF7D8FEEFE7174917
:102698002846FFF7D3FE002409E011492846FFF732
:1026A800CDFE0BE012492846FFF7C8FE01340F2C77
:1026B80013DC002C02DD14F0070FEED0B44207D271
:1026C8003A5D0C4B9B5C13F0970FEBD12E22E9E798
:1026D80003492846FFF7B2FEE8E7BDE8F08100BFEE
:1026E800141B01082C1B0108241B0108301B0108BE
:1026F80074290108784801082DE9F04184B004469E
:102708009DF82C500C9F0E9E95B9012B1ED0194890
:102718004FF0000827B13B462246174909F0E7FA6F
:10272800C6B905BB20460AF095F804B0BDE8F081AB
:1027380003950A980290019300920B4600220F9984
:102748002046FFF71FFF80460C48E3E70B484FF091
:102758000008DFE70F9B0093434632460D99204659
:102768000AF0D2F8DDE72A460F9920460AF0C0F8A9
:10277800D8E700BFC3C80008A16000088BC80008DC
:102788002DE9F04383B00646056842F20F738B4289
:1027980028BF0B46184A0521684607F021FF044662
:1027A8007368D3F804900B27DFF8508005E04A4699
:1027B80039464046A8473F1A8044002FF7D173682E
:1027C800D3F804806F4605E0424621463846A847BC
:1027D800241A0744002CF7D173685F681B24084E3D
:1027E80005E03A4621463046A847241A0644002CFC
:1027F800F7D103B0BDE8F08358330108501B010836
:10280800341B0108074B01221A6004E04008054AFE
:1028180013685B001360044B9842F7D8034B1860A9
:10282800704700BFA80D002440420F00AC0D0024E3
:10283800014B036002207047C41B010810B5044611
:1028480005F042FE0246034920460AF0A6FD002094
:1028580010BD00BF101C010830B583B005461346F3
:102868000022019201AA0A21586801F0F5FD019C95
:1028780024B90AF097F8204603B030BD2246034930
:1028880028460AF0A8FD019CF5E700BF401C010896
:1028980008B5034A03490AF080FD002008BD00BFBF
:1028A800401D0108481D01082DE9F04182B0054688
:1028B80016460023019301AA0A21B06801F0CCFD55
:1028C80004465FFA80F8184928460AF075FD019F0A
:1028D8008FB9B8F1040F15D8706809F0E2FE002826
:1028E8001ADB02B2E3B20021084609F0F4FE3846CA
:1028F80002B0BDE8F0813A460C4928460AF06BFD63
:10290800019FF4E7E2B20A4928460AF064FD284626
:102918000AF0BEFD0127EAE77268064928460AF070
:102928005AFD6FF01507E2E7741D0108DC1D010868
:10293800041E01081C1E010800B583B00090002386
:102948008DF80430694604480DF03CFB9DF80400FE
:1029580003B05DF804FB00BFCDC9000810B50446FC
:1029680005F092FD0246074920460AF016FD064981
:1029780020460AF012FD214604480DF02DFB0020E8
:1029880010BD00BF801E0108A01E0108992900087B
:1029980070B58EB004460D46D0F89C600DF080F9F5
:1029A80003460EF02BF8214A1258944229D0204AA7
:1029B8004BB3009323461F4928460AF0EEFCD4E99E
:1029C8000A23CDE9002394F90E30227B1A492846C0
:1029D8000AF0E3FC202205A9204606F0C7FA0246C1
:1029E800636E164928460AF0D8FC0DA920460DF05A
:1029F80097F9024648B1124928460AF0CEFC0EB0B3
:102A080070BD104AD4E7104BD3E70D9BF11A64222E
:102A180001FB02F2B2FBF6F20292019600913246F5
:102A28000A4928460AF0B9FCE9E700BF0800000097
:102A3800141B0108B01E0108BC1E0108E81E01088D
:102A4800001F0108E0340108AC1E0108301F01080E
:102A580070B590B005460024089409940A940B9424
:102A68000C940D940E940F944FF02033089309930F
:102A78000A930B930C930D93ADF838300146154823
:102A88000DF0AAFA14B1002010B070BD04EB441385
:102A9800114E06EB831607AA4FF4006106F14000B9
:102AA8000DF02DF9079AC2F50061642301FB03F3C9
:102AB800DB0A05934FF40063049303910292019398
:102AC80008AB009323463246044928460AF065FCC1
:102AD8000134D7E7E92A0008C01F0024881F01082D
:102AE800F0B589B004460D46D0F89C6007A90DF0F2
:102AF80017F9B8B920460DF0D3F80799771A642268
:102B080007FB02F2B2FBF6F2034688B10492039681
:102B18000297019100962246064928460AF03DFC94
:102B280009B0F0BD0246044928460AF036FCF7E72A
:102B3800024BEBE7D41F0108001F0108AC1E010877
:102B480038B50546134610220021586807F0E8FDFD
:102B58000446FFF7F1FE78B10DF050FF0E4B1B58FD
:102B68009C4211D0204606F055FC22460B492846C7
:102B78000AF013FC002038BD2246094928460AF00D
:102B88002AFC6FF01500F6E7064928460AF023FCF0
:102B98006FF01500EFE700BF080000008020010873
:102BA8003C2001085820010838B505461346102274
:102BB8000021586807F0B4FD0446FFF7BDFE78B160
:102BC8000DF01CFF0E4B1B589C4211D0204606F0FE
:102BD800B1FD22460B4928460AF0DFFB002038BD2C
:102BE8002246094928460AF0F6FB6FF01500F6E779
:102BF800064928460AF0EFFB6FF01500EFE700BF23
:102C080008000000EC2001083C200108C42001084D
:102C180038B50546134610220021586807F080FD94
:102C28000446FFF789FE78B10DF0E8FE0E4B1B58FD
:102C38009C4211D0204602F001FF22460B4928464B
:102C48000AF0ABFB002038BD2246094928460AF0A5
:102C5800C2FB6FF01500F6E7064928460AF0BBFBF1
:102C68006FF01500EFE700BF0800000054210108CD
:102C78003C2001082C21010810B503460C461146DA
:102C8800006808B1027822B9024A204607F0A8FC79
:102C9800204610BD902101082DE9F04186B0064676
:102CA80005A805F0CFFC00EBC000059B03EB8008EE
:102CB800224A082130460AF053FB059C0CE0204BC1
:102CC800204A082130460AF04BFB236A1BB11D68D5
:102CD8000DB12B68A3B9243444452AD2142269467D
:102CE8002046FFF7C9FF0346174A082130460AF075
:102CF80037FB20460CF01FFF0028E0D0134BDFE71E
:102D0800134A082130460AF02BFB00272B68BB42E8
:102D180009D905EB87035B680E4A082130460AF09B
:102D28001FFB0137F2E70C4A082130460AF018FB6E
:102D3800D1E7002006B0BDE8F08100BFAC21010852
:102D4800A0210108C0210108B82101089821010823
:102D5800C8210108DC210108CC26010808B5102A81
:102D680012D0202A13D0082A06D00A4A08210AF0CD
:102D7800F7FA6FF0150006E00B78DBB2064A082177
:102D88000AF0EEFA002008BD0B889BB2F6E70B6844
:102D9800F4E700BF502201086822010808B5029B29
:102DA800102A0ED0202A10D0082A06D0084A082156
:102DB8000AF0D6FA6FF0150002E0DBB20B700020C3
:102DC80008BD9BB20B800020FAE70B600020F7E7F4
:102DD800502201082DE9F04182B004460D461646FE
:102DE80010220021706807F09BFC0746022D20D8AE
:102DF8004FF020084346164A082120460AF0B0FA48
:102E0800032D1ED910220021F06807F089FC054621
:102E18000346104A082120460AF0A2FA009500232A
:102E28000193424639462046FFF7B8FF02B0BDE895
:102E3800F0810A220021B06807F072FC5FFA80F87E
:102E4800D8E7424639462046FFF788FFEEE700BF3D
:102E58007C2201089422010838B504460D4611B1B8
:102E68000E4B1B785BB90D4A137883F0010313707E
:102E78005BB9294620460AF028FB002038BD0849DE
:102E88000AF0A9FA6FF00F00F8E7064920460AF0A1
:102E980084FA024B01221A70EBE700BFFE130024EC
:102EA800A8220108E4220108F8B507460E4615468F
:102EB8000023244A1370244A1360244A13600CE048
:102EC80000231C440222224920460DF099FB98B9A0
:102ED8001C4B01221A700435013E012E1DD96C6865
:102EE80002221C4920460DF08BFB0028E8D1A3786C
:102EF800002BE6D00123E4E716492046FDF700FE43
:102F080050B123782D2B08D1637833B1224612496A
:102F180038460AF042FADEE70435002211466868AE
:102F280007F0FEFB0D4B186000221146686807F099
:102F3800F7FB0B4B18600B493846FFF78DFF002055
:102F4800F8BD00BF00140024B40D0024B80D0024FF
:102F5800142301081023010818230108C00D0024B8
:102F6800BC0D0024712F000838B505464F4B1B785F
:102F7800182B01D0002305E00B78112B27D0002354
:102F880000E0013302F1FF3C9E469C4509D9CC5C28
:102F9800182CF6D18E449EF801001128F1D1012396
:102FA80000E000239BB911F80C20404B1A700C78F4
:102FB800204609F00EFD28B13D4A13683D49CC541E
:102FC800013313603A4B1B68022B5DD038BD3A4B76
:102FD8001A683A4928460AF0E0F900212846FFF71E
:102FE8003BFF374B1B78002BF0D113E0354D2A6897
:102FF8001068030A03F47F4343EA1063040204F4ED
:103008007F04234343EA006342F8043B2A600439FF
:10301800294B1960284B19680429E7DC11F0030FC4
:103028000FD1284B18680268130A03F47F4343EA58
:103038001263110201F47F010B4343EA0263036048
:10304800C4E74B4201F0030103F0030358BF5942A0
:1030580002290FD00329B9D11A4B19680B68C3F399
:10306800074203F47F4002431B0403F47F03134326
:103078000B60ABE7134B19680B68C3F307221B02FD
:103088009BB213430B60A1E710220021094807F007
:1030980047FB0D4A136803F8010B1360064A1368CF
:1030A80001331360024B00221A608FE7FF130024DC
:1030B800B40D0024B00D0024B80D002430230108FD
:1030C80000140024BC0D0024C00D00242DE9F04399
:1030D80085B080460F4615461C46DE08002D5DD09B
:1030E8004FF0000C08E01CF807300CF110010DEB54
:1030F800010C0CF8103C9446B54240D30CEB060288
:10310800102A3CD8102C0DD0202C1BD0082CEAD02B
:10311800234A082140460AF023F96FF0150005B04C
:10312800BDE8F0833CF807300CF11001694401F860
:10313800103CC3F307230CF111010DEB010C0CF843
:10314800103CD8E75CF807300CF11001694401F82D
:10315800103CC3F307200CF11101694401F8100C6D
:10316800C3F307400CF11201694401F8100C1B0E5F
:103178000CF113010DEB010C0CF8103CBBE7A94650
:10318800102D28BF4FF010094B466A463946404675
:1031980000F0D6FE1037A5EB09059FE70020BEE733
:1031A800502201082DE9F04383B081460D461446AC
:1031B80000230193384B01221A6002F0BFFF4FF041
:1031C800FF364FF020083746344A2146284602F099
:1031D800D9FFB0F1FF3F43D073281BD077282CD0FC
:1031E800612804D06FF0150003B0BDE8F08301AA90
:1031F80010212B4B186801F02FF90646019B002B74
:10320800E2D0274B1A68274948460AF0E4F86FF0DD
:103218001500E9E701AA0021214B186801F01CF903
:103228000746019B002BCFD01D4B1A681E49484604
:103238000AF0D1F86FF01500D6E701AA0021184B63
:10324800186801F009F98046019B002BBCD0144B8B
:103258001A68164948460AF0BEF86FF01500C3E729
:10326800B6F1FF3F0AD0B7F1FF3F0ED05FFA88F3FF
:103278003A4631464846FFF729FFB5E70C49484624
:103288000AF0A9F86FF01500AEE70A4948460AF0B7
:10329800A2F86FF01500A7E764000024882301084E
:1032A8008C1100244C2301086023010874230108B1
:1032B80090230108B023010810B50246034653F8CD
:1032C800404B402141634362002383854385038546
:1032D80043860386C38500F1380108201062116116
:1032E8001383D3829382D38393835383C2F8B830F2
:1032F8000349204609F091FB204609F0A8FB10BDC0
:1033080025CC00082DE9F04383B007460E464FF060
:10331800000810E06FF057044FF00108224606F14C
:103328002801484609F092F8AC4214BF002501254F
:10333800002C2FD075B306F12409726B01A94846F9
:1033480009F00EFC054668B10199BB689B69002B22
:10335800E0D002463846984704460028DED04FF0B1
:103368000108DBE7104B1B6813F0060F09D1BB6897
:103378009B6963B101220DF1030138469847044661
:10338800D2E70A4A0221084809F04BFAEFE76FF042
:103398005704C9E7B8F1000F03D07368B16800207B
:1033A800984703B0BDE8F083C40100247C250108D8
:1033B80000B583B009480CF0BEFB60B1042300934C
:1033C8000123074A12680549064800F06BFE0020F1
:1033D80003B05DF804FB6FF01200F9E7900D0108E7
:1033E800942501084014010883681975022900D042
:1033F800704710B5044683689B6C03B110BD09F093
:1034080027FCA368D3F8783213F4805F03D12046F1
:103418000AF0CAFBF2E7054B054A032120460AF0E9
:1034280026FB0021204609F0CAFCF0E740260108E7
:10343800001B010810B5044609F0A4FCA3685B6CE6
:1034480013B1014620469847A3680022C3F82023F9
:103458000DF0D4FA014B185802F0F0FA08000000F9
:1034680008B58368D3F8743213F0200F00D108BD73
:103478000249406909F0AEFDF9E700BFB815010837
:1034880010B504468168183101F04EFBA168034A63
:10349800183120460AF06CFD10BD00BF84260108D3
:1034A80009B10020704710B5044683689B69054A36
:1034B80001210AF0DCFA2046FFF7E2FF6FF0150061
:1034C80010BD00BF94260108F8B50446164680686A
:1034D800426A72B10D4690F8282092B390F82930CC
:1034E800FF2B25D0AA4226D81344AB4248D200214C
:1034F80022E0ABB15A68002A44D0C1698A420AD096
:1035080000F1180E9C46BCE80F00AEE80F00DCF88E
:103518000030CEF800302046FFF7B2FF01272DE03B
:103528001A4A012120460AF0A2FA6FF0070725E09F
:103538004FF6FF73D6E700212046FFF7B1FF074695
:10354800E0B90121204609F09AFCA06800F5437013
:1035580005F026FCA3685B6A324629462046984750
:103568000746A06800F543704FF0FF324FF0FF3375
:1035780005F096FB0021204609F081FC3846F8BD8D
:103588000121D9E76FF00707F8E700BFB026010867
:1035980091B110B504460846D36803B910BD20465A
:1035A8000AF0C2F9204601F059F8044A01212046E0
:1035B8000AF05DFA0020F1E701207047D0260108E3
:1035C8002DE9F047A6B00646542200210CA80CF0BD
:1035D800ECFF00230693059304934FF0FF33039306
:1035E800B36803F1560A30460AF09EF930460AF0ED
:1035F8002DF9C8B1B36800279F61DF611F625F6260
:103608009F6230460AF097F8B168B1F850205631F9
:10361800304609F0F6FC30460AF00CFF0897B84629
:103628000CACB9463D465BE06C49706909F0D2FCC8
:10363800E0E700286AD00346694A012130460AF0CB
:1036480016FA6FF00700A1E0206801F0A1FA00283F
:103658005FD0089B5BB1B468183407AD0FCD0FC4B9
:103668002B6823603046FFF70BFF01208EE05D4A90
:10367800012130460AF0FBF96FF0070086E0226866
:10368800294630460AF0FBFE022868D0032843D0BA
:10369800069B013306934FF0010921E021AA216816
:1036A800384609F0F4FF054639E0069B93B9B3683C
:1036B800DB6A23B1DB6813B14FF0010848E04A4BDD
:1036C80000930C9B494A012130460AF0D0F94FF08B
:1036D80001083DE04FF001083AE0069B01330693EC
:1036E800049B012B3BD0069B132B38D8039B002B44
:1036F80035D002235246214604A800F00DFED4F826
:1037080004A0049B002B63D0012B92D0069B002BB6
:103718009AD1069B002BB2D1B8F1000FBED0043469
:10372800039B013B0393002DBFD02A4649463046F0
:10373800FFF72EFF00284ED0B16803AB019305AB0D
:10374800009306AB07AA1831284609F09FFA2F46BE
:10375800039B002BC1D1049B022BC1D1BDE7069B63
:10376800132B02D9049B022B13D0B9F1000F19D1E6
:1037780017B17B7CFE2B20D0059907AB0CAA02EB76
:1037880081020698411A3046FFF79EFE26B0BDE832
:10379800F087174B174A012130460AF068F96FF095
:1037A8000700F3E730460AF07DFEB268142356326C
:1037B8000CA906A800F0B0FDDAE7069B26AA02EBE2
:1037C800830252F8682C002AD6D001330693D3E737
:1037D8006FF00700DAE76FF00700D7E7CC2601089B
:1037E80000270108B02601081C2701081427010832
:1037F80030270108903B0108F0B583B004461D4608
:103808008068B0F85030FF2B49D00F461646B0F804
:10381800522000F1560100F5AB700CF09EFEA36833
:10382800B3F852201344002283F85621A2681423C7
:1038380002F5AB723168284600F06EFD2B68142B38
:1038480030D83268002142F82310A368B3F8522018
:10385800D2B1013A134493F85630144AD35C03F0BA
:1038680008032C6894B113B9012C0FD0013C002037
:103878000190099B0093089B3268214609F02AFFB2
:10388800386048B101200BE00023EAE70023089ADA
:1038980013603B60012003E034B9012000E0002000
:1038A80003B0F0BD0020FBE70020F9E778480108E5
:1038B800F8B504460E461F4672B31046FDF732F9B6
:1038C80085B2A26818323946304600F04BFD0668CA
:1038D80026B33046FDF726F980B2A84220D1A26867
:1038E800B2F85230134493F856301649CB5C13F0B3
:1038F800080F21D1D2F8743213F0010F17D000212C
:10390800204609F0FCFA202120460AF0FBF80121A4
:10391800204609F0F4FAF8BD0025D2E70020DCE7DC
:10392800421B92B2711920460AF008F9D7E7202104
:1039380020460AF0E7F8EEE70121204609F0A1FF4A
:10394800E9E700BF784801082DE9F04182B0064652
:1039580049B30F46023294B2D0F80880B8F83A500A
:10396800023D95FBF4F5ADB20846FDF7DBF880B2F1
:10397800241AA4B2B8F840305A1CA8F84020B3FB67
:10398800F5F205FB12339BB293B900970C4B0D4A25
:10399800062130460AF06BF82146304600F01AFE40
:1039A80002B0BDE8F08183680022A3F84020F7E761
:1039B8003B46054A062130460AF059F8ECE700BFB5
:1039C8005427010858270108001B01082DE9F84F62
:1039D800074689461D460A9EBDF82CB0904652B14E
:1039E8001046FDF79FF81FFA80FA5A46002138461C
:1039F800FFF7AAFF08E04FF0000AF6E75A462168E9
:103A08003846FFF7A1FF013EA6B1BA681832294629
:103A1800484600F0A7FC04460135B8F1000FEDD088
:103A280000680028EAD0524641460CF0E9FD00281B
:103A3800E4D0E9E70449786909F0CCFA38460AF095
:103A4800B3F8BDE8F88F00BFCC26010810B50446CE
:103A5800013916290FD8DFE801F00C0F1226292C9E
:103A68000E0E0E0E2F320E4C0E500E0E0E0E540E63
:103A7800610009F050FF10BD09F061FFFBE709F094
:103A880053FF204609F0E2FE40B10121204609F02B
:103A980016FA02212046FFF7A7FCECE723496069E4
:103AA80009F098FAF1E70AF04DF8E4E709F03CFF6D
:103AB800E1E709F04FFFDEE709F059FFDBE783682C
:103AC800D3F8743213F0200F09D1A368D3F87432F5
:103AD80013F0200F08D120460AF066F8CBE7144906
:103AE800406909F077FAF0E71249606909F072FA5B
:103AF800F1E7002109F081FBBDE7012109F07DFB19
:103B0800B9E709F008FF204609F0A2F8012120468C
:103B180009F0D5F92046FFF7A3FCACE700F046FE14
:103B28000121204609F0CBF9A5E700BFCC26010802
:103B3800C0150108C815010870B586B004460023F1
:103B480005930CE1606803681D6905AB01220DF15E
:103B58001301A847059B002B00F023819DF8131043
:103B68009DF91330002BC0F2FA80A268537D032B15
:103B780000F21981DFE813F004008A009C00EE00CF
:103B8800204609F0ADF8A8B99DF813101B2927D8CD
:103B98001B2962D8DFE801F0E06161616161616160
:103BA8004E3F616161616161616161616161616132
:103BB8006161613BA568B5F850305BB9204609F0F2
:103BC80017FA7A49606909F005FA02212046FFF7D9
:103BD8000BFCC4E02046FFF7F3FCC5F82403F4E728
:103BE8007F293AD1A368D3F8743213F0020F00F09A
:103BF800B3800121204609F062F9A368D3F8743232
:103C080013F0080F25D0204609F0BBFFA4E0A368F5
:103C180001225A75A0E0A368D3F8743213F0020F9A
:103C280000F09A800121204609F049F9204609F060
:103C38008CFA91E0A368D3F8743213F0020F00F005
:103C48008B800121204609F03AF9204609F099FFB6
:103C580082E0204609F076FF7EE0554B5B5C13F06E
:103C6800970F09D1A368D3F8743213F0020F73D0F9
:103C78002046FFF7EBFE6FE00121204609F01FF90F
:103C88009DF81310204609F03DFF65E05B2908D038
:103C9800D2F8743213F0020F06D1A36800225A75C5
:103CA8005AE00223537557E0204609F097FAF4E7E3
:103CB80000235375A368D3F8742212F0020F4ED074
:103CC80031391B2948D8DFE801F0262C392047472D
:103CD800474747474747474747470E13181C472258
:103CE80047284747472E0121204609F086FA33E046
:103CF8000021204609F081FA2EE0204609F02AFE2C
:103D08002AE0204609F01BFE26E003225A752046C9
:103D180009F00AFE20E003225A75204609F0FBFD4F
:103D28001AE003225A75A368D3F8741201F001014E
:103D380081F00101204609F0E2F80DE003225A75EE
:103D4800A368D3F8743213F0020F05D0204609F0A7
:103D5800F9FE01E000235375606909F0BEFBA36812
:103D68009D6C002D3FF4EEAE606803681E6905ABDC
:103D780010226946B047059B9BB10121204609F0F6
:103D88007EF8059A69462046A8470021204609F092
:103D980076F8A3689B6C002BE1D102212046FFF73F
:103DA80023FB06B070BD00235375D5E7CC26010868
:103DB8007848010838B583681A7D012A33D104464A
:103DC800D3F8782212F4804F04D0D3F8742212F07A
:103DD800040F1FD0A06800F5437041F28832002319
:103DE80004F05EFF0546D8B90821204600F0B4FC6F
:103DF8000E49606909F0EEF802212046FFF7F4FA4F
:103E0800204609F0E3FEA06800F5437004F0C8FFFF
:103E1800284638BDDA6C0146C0690AF01EF8D9E7B1
:103E28006FF00F05F4E76FF08505F1E7CC26010880
:103E380038B504461546003918BF012108F0DFFFE0
:103E4800A368DD64606803689B680021984700B137
:103E580038BD2046FFF7AEFFE0B1F9E7A06800F5EE
:103E6800437041F28832002304F01AFF0028EFD192
:103E78002B461E4A0121204609F0F9FDA06800F5ED
:103E8800437004F08DFFE3E79847A06800F543709E
:103E980004F086FFA06800F52F704FF0FF324FF056
:103EA800FF33032106F0BAF905460028D6D1A068E9
:103EB80000F543704FF0FF324FF0FF3304F0F0FE8F
:103EC8000B4A0221204609F05AF80A4A00212046E6
:103ED80009F055F8084A0121204609F050F86068B1
:103EE80003685B69002BCFD1CFE700BF60270108CB
:103EF8003D340008B5D2000835CD000810B5044699
:103F08000A4909F04AFA0A49204609F046FA0949D5
:103F1800204609F042FA0849204609F03EFA074AC5
:103F2800002120460AF024F8002010BD7827010857
:103F3800B8270108182801086C2801080829010871
:103F4800F8B5054617461E460A46244909F025FADB
:103F5800002409E02249284609F01FFA0BE021490C
:103F6800284609F01AFA01340F2C0CDC002C02DD6B
:103F780014F0070FEED0B442F1D23A5D1A49284640
:103F880009F00BFAEFE71949284609F006FA002468
:103F980009E01349284609F000FA0BE014492846BD
:103FA80009F0FBF901340F2C13DC002C02DD14F0AE
:103FB800070FEED0B44207D23A5D0E4B9B5C13F06C
:103FC800970FEBD12E22E9E70549284609F0E5F9D4
:103FD800E8E70949284609F0E0F9F8BD2029010871
:103FE800141B01082C1B0108241B0108301B0108A5
:103FF8007429010878480108282901082DE9F041A9
:104008000646884617464FF44A72002180680CF02D
:10401800CCFA304608F0D9FFB06800F543700BF0D1
:10402800E4FD002517E0B0682C0104F51E74204457
:1040380004300CF01BFAB068031905EB850C4FEA45
:104048008C0C0CF52E7C60440433002201210430D2
:104058000CF0D5F90135032DE5DDB36900241C60AA
:104068000121304608F0EBFEB36850225A87B36846
:1040780018221A873168304609F0D3F964F38207A9
:10408800B368C3F87472706803681C683346044ADE
:104098004146A04710B9B36801221A75BDE8F081FE
:1040A800B9CF000870B588B004468068D0F82003FE
:1040B80010BB1D462046FFF7A1FF064610B130464B
:1040C80008B070BDA06AE16A00220023CDE906238A
:1040D800002304930E2303930C9B029301950094F1
:1040E800074B4FF400620BF0E8FDA368C3F8200308
:1040F800616A04F029FFE2E76FF07706DFE700BFA7
:10410800393E000810B5044613460A4601460548DC
:1041180001F0C2FF23691B7903B910BD204609F0DD
:10412800DCF9FAE7FBD4000870B50C46037873B1E4
:104138002388C21812F8012C11498A5C12F0080F62
:1041480006D0013B9BB22380002BF1D1037070BDD8
:104158000022C25413461D4601339BB24119425DE9
:10416800074EB25C12F0080FF5D1002DEFD022886F
:10417800521B01320CF0FFF923885B1B2380E6E712
:10418800784801082DE9F84380460568002689E04B
:104198006C1C4DB12846FCF7C5FC82B22146284666
:1041A8000CF0E9F925467DE00022F7E76E1C4DB1D9
:1041B8002846FCF7B7FC82B2314628460CF0DBF9FA
:1041C80026466FE00022F7E76C1C4DB12846FCF745
:1041D800A9FC82B2214628460CF0CDF9002661E000
:1041E8000022F7E76C1C2846FCF79CFC82B22146AB
:1041F80028460CF0C0F9254654E04FF00009022784
:10420800042F0CD8EB5DA3F13002D2B2072A06D8EE
:1042180042EAC9025FFA82F90137FFB2F0E7022FDA
:104228005BD97C1E2C4465B12846FCF77BFC82B226
:10423800023FD21B214628460CF09DF905F8019B48
:1042480030E00022F4E7A3F16102D2B2052A14D8C3
:10425800573BDBB243EA09135FFA83F90137FFB230
:10426800032F16D8EB5DA3F13002D2B2092AEAD89F
:1042780042EA09125FFA82F9F0E7A3F14102D2B2E9
:10428800052A06D8373BDBB243EA09135FFA83F9FC
:10429800E4E7022F27D826B91E4B1B5D13F0080F41
:1042A80033D101352C7884B346B9272C3FF47EAF3F
:1042B8005C2C3FF46DAF222C3FF478AFA64283D03C
:1042C800331E18BF01235C2C18BF0023002BE2D03B
:1042D8006B789E4286D0302B8FD0782BDBD14FF075
:1042E80000090227BCE77C1E2C4465B12846FCF770
:1042F80019FC82B2023FD21B214628460CF03BF93A
:1043080005F8019BCEE70022F4E7C8F800503046D4
:10431800BDE8F8837848010870B582B004460E46B7
:1043280001921D460020206007E0531C01930023E2
:10433800137002E001A8FFF725FF019A117869B10F
:10434800074B5B5C13F0080FEFD123685A1C2260FF
:10435800019A46F823202368AB42EBD102B070BD26
:10436800784801088C46034688B110B51446806821
:1043780020B3154B984214D3144B984211D20368BA
:104388001146604698472068C0B1204616E010499B
:10439800104A521ABCEB920F01D251F82C30184631
:1043A80070470D4B984202D30C4B984207D30068D4
:1043B8000CEB8C0C00EB8C0003681BB110BD0CF1EE
:1043C800010CF5E71846F9E7B4150108B815010816
:1043D800701401089C1401089C140108B415010804
:1043E800002835D0F8B50646FCF79CFB85B275B3B6
:1043F8000024274606E00137BFB2013292B20EE030
:104408000134A4B2AC466B1E9C4220DA2046335DD0
:10441800104AD35C13F0080FF2D0621C92B2954296
:10442800EED906EB020EB35C0A49CB5C13F0080F19
:10443800E1D1002FE4D00130ACEB02020132714629
:1044480030440CF098F8EF1BBDB20027D8E7F8BD50
:10445800704700BF78480108F0B583B01646037866
:104468002D2B19D004460CF0C9FA0546104F00232D
:10447800C3510A4601A9204606F052F9EB59222BEE
:1044880010D023B9019BA34201D01B7843B16FF030
:1044980015033360002003E06FF01503136000205C
:1044A80003B0F0BD6FF0210333600020F8E700BFD0
:1044B8000C00000070B586460020054602E0012584
:1044C800013080B213FB00FC11FA8CFC1FFA8CFC43
:1044D800DC0FBCF1000F14BF002404F0010484B900
:1044E800944514BF00240124002BD8BF002444B9EC
:1044F8001EF80C40034E345D14F0070FDFD1002D79
:10450800DED070BD7848010808B58368D3F87432E6
:1045180013F0200F00D108BD0249406909F029F9BC
:10452800F9E700BFD015010808B58368D3F87432DD
:1045380013F0200F00D108BD0249406909F019F9AC
:10454800F9E700BFD415010808B58368D3F87432B9
:1045580013F0200F00D108BD0249406909F009F99C
:10456800F9E700BFDC150108082915D814D008B5EB
:10457800836893F83F208A4207D083F83F10836806
:10458800D3F8743213F0200F00D108BD0A4603494E
:10459800406909F0EEF8F8E7704700BF64290108A0
:1045A80008B50A1E09DD4123002A0ADB8168D1F813
:1045B800741211F0200F06D108BD002AFCD0422346
:1045C800F2E75242F2E70249406909F0D2F8F3E70C
:1045D8007029010808B50A1E09DD4323002A0ADBF1
:1045E8008168D1F8741211F0200F06D108BD002A95
:1045F800FCD04423F2E75242F2E70249406909F04D
:10460800B8F8F3E77029010810B504460A4683682C
:10461800B3F85210481CA3F852000B4483F85620F4
:10462800A368D3F8741211F0020F0DD0D3F87432C6
:1046380013F0040F00D02A220649606909F099F89E
:10464800204609F003F900B910BD0349606909F073
:1046580090F8F9E774290108CC26010810B504463A
:1046680009F0F4F818B9204609F091F818B1024990
:10467800606909F07EF810BDCC260108F8B505463A
:104688008468B4F85020B4F8521004F1300008F0EF
:10469800B8FFA78EE68E284609F079F870B9B742B8
:1046A80011D0E18EA38EC91A2846FFF779FF218E13
:1046B800638EC91A2846FFF78DFFF8BD054968695A
:1046C80009F057F8EBE7218E638EC91A2846FFF7E1
:1046D80081FFF2E7CC2601082DE9F84305468468F6
:1046E80014F1560006D0FCF71DFA86B294F83C7017
:1046F80000231BE00026F9E71C44224492F8569058
:104708004FF0000882F85680AA6850331A440632DF
:104718000F49686909F02DF8AB68234483F856906F
:10472800AB685B8FDB1BF61A23464746AA68548F93
:10473800E41BB442E0DB002E01DCBDE8F883503313
:104748001A4406320349686909F013F8F5E700BF0F
:10475800903B0108001B0108082921D808B5836887
:1047680093F83E208A4209D083F83E1008290CD0DD
:104778008368D3F8743213F0200F00D108BD0A46BD
:104788000849406908F0F5FFF8E78368D3F8743200
:1047980013F0200FF2D00449406908F0EAFFEDE772
:1047A800704700BF78290108E01501088168B1F851
:1047B8005020002A46D070B50546B1F85230002B7B
:1047C8003FD04F330B44063301F1560C002402E06E
:1047D8000134A4B2013B634502D319782029F7D0EC
:1047E800634506D31978202903D00134A4B2013BCC
:1047F800F6E75E1C611C121B194430460BF0BBFE29
:10480800AA68B2F850301B1BA2F85030AB68B3F856
:1048180050201344002283F85620614209B22846EA
:1048280009F02FF82846FFF76FFE3346064A08219D
:10483800284609F01CF92846FFF776FE2846FFF7B8
:1048480083FE70BD704700BF001B01082DE9F047CB
:1048580004460E46904672B9D4F80890D9F87432D6
:1048680013F0040F2FD0B9F85200503048440630E6
:10487800FCF758F907E0FFF757FEEDE731496069A3
:1048880008F077FF2846451E0028F7D1A368B3F83B
:104898005020A3F85220204608F079FF60B1002E7E
:1048A8000CBF002308F0010313B9B8F1000F03D1BE
:1048B8002549606908F05DFF714209B2204608F099
:1048C800E0FFBDE8F087B9F85070B9F1000F19D0D2
:1048D8004846FCF727F983B21F44B9F852502B44D5
:1048E800B9F83A2093FBF2F197FBF2F2914218D112
:1048F800503509EB05030633144A0821204609F010
:10490800B6F8C3E70023E7E7A36805F1010A2B44DB
:1049180093F856300E4A0821204609F0A8F8554663
:104928004B46BB42B2DA03F10109A268528F93FBEE
:10493800F2F102FB1133002BE6D10349606908F05C
:1049480018FFE1E7E0340108CC260108001B010844
:104958007429010808B58368024A022109F087F81A
:1049680008BD00BF001B0108002977D02DE9F843D6
:10497800804617460E460BB9002404E01146FFF79F
:1049880029FEF9E70134335D354AD35C13F0080F8B
:10499800F8D115E0002339E0D8F8140008F09DFD9F
:1049A8002A463119404609F00DF809F101042D494C
:1049B800D8F8140009F0CEFA39464046FFF70AFE47
:1049C8003046FCF7AFF883B21B1BD8F80820508F8D
:1049D800C51B9D42DED300259D4207D204EB050985
:1049E80016F809200A2AD7D00135F5E73119D8F881
:1049F800140009F0AFFA1B49D8F8140009F0AAFA14
:104A0800BDE8F883DA1990420CD90133E218B25C98
:104A18001349895C11F0080FF4D00A2A01D01D4609
:104A2800F0E71D46D8F8140008F057FD2A4631195A
:104A3800404608F0C7FF2C44335D094AD35C13F0A5
:104A4800080F01D00134F7E70649D8F8140009F037
:104A580081FA39464046FFF7BDFDB1E7704700BF10
:104A680078480108CC260108F8B505460F461446D3
:104A78001E46516819B100233246FFF775FFA36837
:104A88007BB131462846FFF7A5FD3B46054A08217C
:104A9800284608F0ECFF0023F21DA1682846FFF71E
:104AA80063FFF8BDA0290108002932D0F0B583B012
:104AB80005461C46931D9EB20F460B780BB903B0F2
:104AC800F0BD01910092134B134A082108F0CFFF63
:104AD8009CB1104B114A0821284608F0C8FF14F071
:104AE800030F03D122680E4B9A420BD000233246A3
:104AF80021462846FFF738FFE1E70A49686909F0C7
:104B080029FADCE73346224639462846FFF7ACFF48
:104B1800D5E77047CC290108AC290108081B010812
:104B2800C40BD286CC260108F0B583B006460D46E4
:104B38000F68EFB13846FBF7F5FF84B20334A4B22F
:104B4800104B00933B46104A0821304608F08FFF6F
:104B5800696831B111F0030F03D10A680B4B9A420F
:104B680008D0002322463046FFF7FEFE03B0F0BD12
:104B78000024E3E723460A4629683046FFF774FF16
:104B8800F4E700BFC8290108B4290108C40BD2867C
:104B980010B504460749FBF7B3FF30B10649204674
:104BA800FBF7AEFF18B1002010BD0120FCE7012083
:104BB800FAE700BFBC290108C029010810B504465E
:104BC8008368D3F8743213F0200F07D1A368D3F8A1
:104BD800743213F0200F06D1002010BD044940693B
:104BE80009F005FAF2E70349606909F000FAF3E70A
:104BF800E8150108F015010808B58368D3F8743280
:104C080013F0200F00D108BD0249406909F0EFF9FF
:104C1800F9E700BFF815010808B58368D3F87432BE
:104C280013F0200F00D108BD0249406909F0DFF9EF
:104C3800F9E700BFFC15010810B504468368D3F8EE
:104C4800743213F0200F07D1A36850225A87A36843
:104C580018221A87002010BD0249406909F0C7F9D7
:104C6800F2E700BF0016010808B583691A6802490F
:104C780008F093FB002008BDD029010870B582B068
:104C880006460B4908F089FB0A4C00220AE0551C2D
:104C9800ADB2636A0093A3680749304608F07DFB0C
:104CA80030342A46054B9C42F1D3002002B070BD37
:104CB800E029010840140108F829010870140108C6
:104CC80000B583B002290DD08368D3F8743213F08D
:104CD800020F11D0094A0A4908F05FFB002003B00F
:104CE8005DF804FB53680093064B1268064908F008
:104CF80072FB6FF01500F2E7044AECE73C36010856
:104D0800342A0108102A0108282A01080C2A010857
:104D180008B5024908F085FB002008BD2C1F0108D2
:104D280070B582B00446002509E06E1CA36803F53F
:104D3800AB732A460B49204608F02FFB3546A2687C
:104D48000DF1060302F5AB720121E06809F07CFA67
:104D5800BDF80630002BE8D1A368002083F856017F
:104D680002B070BD482A01082DE9F04383B004461B
:104D78000E46154600278DF803700F80178080684F
:104D88004FF48072394600F5AB700BF00EFC4849C1
:104D9800606909F02CF9606908F09FFBB846B8F51E
:104DA8007A7F15D36FF073007BE04FF47A700AF0C6
:104DB800B2FE08F101081FFA88F8F0E7522B1DD05F
:104DC800A2683A4482F856310137BFB2092F62D837
:104DD80060680368D3F8109001AB01220DF103015C
:104DE800C847019B002BE0D09DF803301B2BE5D072
:104DF800A26892F856211B2AE0D0E9E7A3683B4451
:104E0800002283F85621A36893F857215B2A15D10D
:104E18000222A368134493F856113B2914D02B8817
:104E280003EB83035B009BB2013292B20B44303B2D
:104E38002B80FF2AEDD96FF0790032E0002283F849
:104E480056216FF004002CE0013292B2FF2A2BD8D1
:104E5800A368134493F8561171B1338803EB8303A5
:104E68005B009BB2013292B20B44303B3380FF2A85
:104E7800EED96FF0790014E03388FA2B01D9FA23C0
:104E880033802B88FA2B01D9FA232B80A3680020C2
:104E980083F8560105E0A368002283F856216FF0D5
:104EA8000B0003B0BDE8F0836FF00400F9E700BF22
:104EB800902A010810B582B00446012904D109F0EE
:104EC8005AF958B902B010BD536800930A4B1268DA
:104ED8000A4908F080FA6FF01500F3E7A36850223A
:104EE8005A87A36818221A870549204608F064FAE9
:104EF8006FF00700E6E700BF102A0108282A01081A
:104F0800542A010810B5044608F0D7FA02460349A6
:104F1800204608F042FA002010BD00BFA81801087A
:104F28002DE9F04786B081460F4616464FF0000837
:104F3800414602250DE033461C4A0321484608F045
:104F480096FDB8F1000F27D1284606B0BDE8F087D6
:104F580021464C1C01AA3846FFF704FA824600286D
:104F6800EFD00022DAF80010304609F0D4FC00280F
:104F7800EED1D9F808003346DAF8002000F15401E0
:104F880000F5AB7009F00CFA05460128D3D00028CB
:104F9800D7D108F10108DBE7D9F80800324600F15B
:104FA800540100F5AB7008F048FBCDE75432010816
:104FB8002DE9F04383B000AF0446704B1B6813F033
:104FC800070F57D0D0F80090D0F80480D0F808E048
:104FD8006D468AB0694611F1100200F0B4804FF0B6
:104FE800140C131E18BF01236046BCF1040FD4BF74
:104FF800002603F001060EB1614E4E610828D4BFA9
:10500800002603F001060EB1C1F818900C28D4BF91
:10501800002603F001060EB1C1F81C801028D4BF89
:10502800002303F001030BB1C1F820E0132840F37B
:105038008D8014233AB10520387100207871B87139
:10504800F8717868086100216FF300016FF341017E
:105058006FF382016FF3C501012060F38811C3F378
:105068000A0363F353216FF31F5100234348FDF7ED
:10507800B9F8AD46414B1B6813F0070F55D0D4F86B
:105088000C90D4F81080D4F814E06D468AB06946C4
:1050980011F110025DD04FF0140C131E18BF01233C
:1050A8006046BCF1040FD4BF002603F001060EB120
:1050B800344E4E610828D4BF002603F001060EB115
:1050C800C1F818900C28D4BF002603F001060EB1D1
:1050D800C1F81C801028D4BF002303F001030BB1D2
:1050E800C1F820E0132837DD14233AB105203871C0
:1050F80000207871B871F8717868086100216FF341
:1051080000016FF341016FF382016FF3C5010120C4
:1051180060F38811C3F30A0363F353216FF31F513C
:1051280000231648FDF75EF8AD46144B1B6813F0D4
:10513800070F14D1114B1B6813F0070F16D10C374A
:10514800BD46BDE8F0836FF0004C4AE76FF01B03E3
:1051580070E76FF0004CA0E76FF01B03C5E7E36949
:10516800094A0121054807F066FBE3E7A369074AF6
:105178000121024807F05FFBE1E700BFBC01002402
:10518800A8320108D8320108083301081833010889
:1051980038B504460D4611B10846FFF709FF012C42
:1051A80004D02946204603F0F5FA38BDEFF305830D
:1051B800103B054A126812F0070FF2D0034A01218A
:1051C800014807F038FBECE7BC010024483301082C
:1051D80030BFFFF7FDBF00BF38B50446054D2A466E
:1051E80005490BF0BAF9054A002160190BF0DDF901
:1051F80038BD00BF00000000B81501080800000015
:1052080070B50646064D074B1D444C1B2046FFF75C
:10521800E3FF083CC6F8A84005F1080070BD00BFD0
:105228000000000008000000054B5A699B689A427C
:1052380004D0044A536843F080535360704700BF5A
:10524800C013002400ED00E081690D4B5A6942F457
:1052580080725A61BFF34F8FBFF36F8F31F8021C12
:105268005A6922F480725A61BFF34F8FBFF36F8F70
:105278004DF60273994201D0002070470120704713
:1052880000ED00E04FF0000C83F800C002F07F4C06
:10529800BCF17F4F1AD102F00C0CBCF1080F04D0FE
:1052A80012F0080F0FD00846704708B5084B1B6866
:1052B80013F0070F01D1002008BD064A0121044858
:1052C80007F0AFFAF7E701221A707047002070471D
:1052D800BC0100245C33010808B53F4B1B6813F080
:1052E800070F0BD13D4B9B6A13F0007F13D03A4B4D
:1052F8001B6813F0070F07D11E200DE0384A012163
:10530800354807F08EFAEDE7364A0121324807F0B2
:1053180088FA1E2000E01D20304B9B6A13F0807F26
:1053280005D02D4B1B6813F0070F32D11F202B4BD4
:105338009B6A13F4002F05D0274B1B6813F0070F47
:105348002ED12120254B9B6A13F4802F05D0224BA8
:105358001B6813F0070F2AD12220204B9B6A13F4F5
:10536800003F05D01C4B1B6813F0070F26D12320E4
:105378001A4B9B6A13F4803F05D0174B1B6813F038
:10538800070F22D12420154A916A174B0B439362C9
:1053980008BD164A0121104807F043FA1F20C6E746
:1053A800134A01210C4807F03CFA2120CAE7114AA8
:1053B8000121094807F035FA2220CEE70E4A0121DB
:1053C800054807F02EFA2320D2E70C4A01210248AB
:1053D80007F027FA2420D6E7BC01002400ED00E0FE
:1053E80088330108A03301080000FFFFB433010827
:1053F800D0330108F03301081834010834340108A7
:1054080008B500230B70064B1B6813F0070F00D17B
:1054180008BD044A0121024807F003FAF8E700BF73
:10542800BC010024603401083D4B1B6813F0070FD2
:1054380074D0F0B583B000AF0F2934DC394E103981
:105448006C4600233B7102237B718AB0EC461CF149
:1054580010022AD04FF0120E131E18BF01237046F7
:10546800BEF1040FD4BF002503F0010515B12E4D80
:10547800CCF8145000253D7002257D700828D4BF53
:10548800002503F001050DB1CCF818600C28D4BF35
:10549800002303F001030BB1CCF81C109AB10CF1F6
:1054A800200300210DE0214EC9E76FF0004ED3E73D
:1054B80001F1080505EB070E1EF808EC03F801EBEF
:1054C80001310129F4D9112825DD12234AB104211B
:1054D800397100217971B9710121F9717868CCF8B5
:1054E800100000216FF300016FF341016FF3820197
:1054F8006FF3C501012060F38811C3F30A0363F356
:1055080053216FF31F5100230548FCF76BFEA54696
:105518000C37BD46F0BD6FF01B03D7E7704700BFDF
:10552800BC01002484340108B83401089C34010803
:10553800F8B506460F461546504B1B6813F0070F83
:105548000BD14F4B9B6A13F4805F13D04B4B1B68F6
:1055580013F0070F07D117240DE04A4A01214748E5
:1055680007F05FF9EDE7484A0121444807F059F987
:10557800172400E01624424B9B6A13F4006F05D0F1
:105588003E4B1B6813F0070F1ED118243C4B9B6A37
:1055980013F4007F2CD0394B1B6813F0070F1AD176
:1055A800374A936B926A12F4004F20D0334A12683C
:1055B80012F0070F15D1002F3CD0314A936A23F41B
:1055C80000439362192413E0304A01212B4807F065
:1055D80028F91824DAE72E4A0121284807F021F98A
:1055E800DEE72C4A0121254807F025F9E3E71924CD
:1055F800234B9B6A13F4806F05D0204B1B6813F074
:10560800070F19D11A241E4B9B6A13F4807F21D0EF
:105618001A4B1B6813F0070F15D11B24184A936AFD
:1056280043F47F4393620121304608F057FF287006
:105638002046F8BD1924DBE7174A01210F4807F077
:10564800F0F81A24DFE7154A01210C4807F0E9F8B9
:105658001B24E3E70A4B9B6A13F4005FDED0074B79
:105668001B6813F0070F01D11C24D7E70C4A01214E
:10567800024807F0D6F81C24D0E700BFBC0100247C
:1056880000ED00E0CC340108E4340108F8340108E6
:105698000C35010828350108403501085C3501083A
:1056A800743501082DE9F04104460F4616465C4B57
:1056B8001B6813F0070F0BD15A4B9B6A13F0100F9E
:1056C80013D0574B1B6813F0070F07D111250DE0B6
:1056D800554A0121524807F0A4F8EDE7534A012141
:1056E8004F4807F09EF8112500E010254D4B9B6AA6
:1056F80013F0080F05D04A4B1B6813F0070F1FD192
:105708001225484B9B6A13F0020F2DD0444B1B689F
:1057180013F0070F1BD1434BD3F834809B6A13F067
:10572800800F5FD03E4B1B6813F0070F15D1002F79
:105738005CD03C4A936A23F080039362132515E0FA
:105748003B4A0121364807F06CF81225D9E7394A57
:105758000121334807F065F8DDE74346364A012161
:105768002F4807F068F8E2E76FF015082D4B9B6AA1
:1057780013F0010F05D02A4B1B6813F0070F37D120
:105788001425284B9B6A13F0200F05D0244B1B6867
:1057980013F0070F33D11525224B9B6A13F0100F16
:1057A80004D1204B9B6A13F0020F04D01D4B5B6899
:1057B80013F4006F2AD11B4B9B6A13F0200F04D0FF
:1057C800184A536A23F400535362164A936A43F003
:1057D800FF0393620121204608F080FE30702846BE
:1057E800BDE8F0816FF015081325BFE71325BDE765
:1057F800124A01210A4807F014F81425C1E7104A93
:105808000121074807F00DF81525C5E72146404650
:1058180000F0DEF90028CED080F309880225CAE717
:10582800BC01002400ED00E0A4350108BC350108E6
:10583800F8340108F0350108083601082036010857
:105848007435010870B506460D46384B1B6813F0D1
:10585800070F0CD100232B70354BDC6A14F00204BF
:1058680012D0324B186810F0070006D170BD314ACB
:1058780001212E4806F0D5FFECE72F4A01211846F2
:1058880006F0CFFF0020F1E7294BDB6A002B14DB81
:10589800274BD86A10F08040E8D0244B1B6813F0DF
:1058A800070F16D13046FFF7CFFCF8B11F4B1B6826
:1058B80013F0070F13D13068D8E71C4B186810F0A5
:1058C8000700D3D01D4A0121184606F0AAFF20463A
:1058D800CCE71B4A0121154806F0A3FFE2E733682D
:1058E800184A0121114806F0A6FFE4E7104B9B6A0D
:1058F80013F0FF0F0DD10E4B986A10F47F400ED1B4
:105908000B4B9B6AB3F5803FB0D33046FFF7E4FCFE
:10591800ACE72A4601213046FFF7C4FEA6E72A462F
:1059280001213046FFF704FEA0E700BFBC010024B8
:1059380000ED00E040360108583601087C360108C1
:105948008C360108AC36010830B58BB01D4B5D684C
:10595800C5F30805002383F31188BFF36F8F0DF19A
:105968002603FFF78FFC04460DF12702294608F0AD
:10597800B7FD9DF827300BB10BB030BD05460DF1D2
:10598800040C20686168A268E368ACE80F0020692D
:105998006169A269E369ACE80F009DF8263043B15C
:1059A800089BC3F3080242B940F2FF121A43089257
:1059B80003E0054B089A1340089301A92846FFF70E
:1059C800E7FBD9E700ED00E000FEFFFF044B5A6952
:1059D80042F010025A615A6922F008025A6170476F
:1059E80000ED00E0EFF30880EFF3098101B572469E
:1059F800FFF7AAFF01BD00BF0E4880F308881020FA
:105A080080F311880C484FF0AA014FF404620AF0A1
:105A1800C1F809484FF40461401880F30988EFF38E
:105A280014800221084380F31488BFF36F8F00F0BD
:105A380091F80000802D0024C01F002408B50A4BEF
:105A48009B68834202D003F0FBFF08BDEFF3058398
:105A5800002BF8D0054B5A6842F080525A605A6AB7
:105A680022F400425A62EEE7C013002400ED00E081
:105A780015498A684FF030001044EFF3098C80E82C
:105A8800F01F102080F31288BFF36F8F0F4F4FF075
:105A980000664A698A603E60D2F8A8000C4C206013
:105AA800D2F8AC000023C2F8AC3080F3118804B5FA
:105AB800104600F00FF9BDE8044002F1300090E80C
:105AC800F01F8CF309887047C013002404ED00E030
:105AD8006C1100241EF0040F0CBFEFF30880EFF3E5
:105AE8000980816911F8021C0229FFD001B57246AC
:105AF80008F0E8FC01BD00BF002807DB00F01F022A
:105B0800400901239340024A42F82030704700BF01
:105B180000E100E0002804DB0901C9B2044B195474
:105B2800704700F00F000901C9B2024B19547047C1
:105B380000E400E014ED00E0044B23F07F03044A86
:105B48009360BFF34F8FBFF36F8F7047000000085B
:105B580000ED00E008B5FFF7EFFF0B4AD2F88830F8
:105B680023F47003C2F88830EFF3148323F004039E
:105B780083F31488BFF36F8F02F0EEFF04F00AF985
:105B880000F070F803F050F800ED00E010B4A2F156
:105B980020040E4942F8081C21F0010142F8081CB3
:105BA80042F8203C019B42F81C3C029B42F8183CFE
:105BB800039B42F8143C4FF0807342F8043C0465A0
:105BC8000023C0F8AC3010BC704700BFE5190008CE
:105BD800104B9B68BBB110F1160F0BD0D3F898206F
:105BE800A2F1400C844510D8824210D98A4207D8C5
:105BF80000207047D3F898208A4201D800207047C7
:105C0800D3F89800704700207047002070470020A4
:105C1800704700BFC013002408B50E4615460C4A4D
:105C28009060D0F8A8200B4B1A6000F053F82C466F
:105C380086F309880020044B98472046002100225B
:105C48000023024C2047000055E50008E51900082C
:105C5800C01300246C110024014B10221A617047F4
:105C680000ED00E0002306E002F00F0208491144AD
:105C780010220A760133952B08DC1AB2002AF3DBCE
:105C880004491144102281F80023F3E7704700BF4C
:105C9800FCEC00E000E100E008B5EFF30583103B01
:105CA800044A02EBC301496852F833008847FFF7FA
:105CB800BBFA08BD200E010808B5034B034A0121B1
:105CC800034808F087FC08BD0000082400000024F1
:105CD800C836010808B5D0F89830403B044803603E
:105CE80040234360034B8360012108F077FC08BD23
